{
  "address": "0x91AD06ad3E52A946577683cCF8Cb5493b92C5807",
  "abi": [
    {
      "inputs": [
        {
          "internalType": "address payable",
          "name": "diceGameAddress",
          "type": "address"
        }
      ],
      "stateMutability": "nonpayable",
      "type": "constructor"
    },
    {
      "anonymous": false,
      "inputs": [
        {
          "indexed": true,
          "internalType": "address",
          "name": "previousOwner",
          "type": "address"
        },
        {
          "indexed": true,
          "internalType": "address",
          "name": "newOwner",
          "type": "address"
        }
      ],
      "name": "OwnershipTransferred",
      "type": "event"
    },
    {
      "inputs": [],
      "name": "diceGame",
      "outputs": [
        {
          "internalType": "contract DiceGame",
          "name": "",
          "type": "address"
        }
      ],
      "stateMutability": "view",
      "type": "function"
    },
    {
      "inputs": [],
      "name": "owner",
      "outputs": [
        {
          "internalType": "address",
          "name": "",
          "type": "address"
        }
      ],
      "stateMutability": "view",
      "type": "function"
    },
    {
      "inputs": [],
      "name": "renounceOwnership",
      "outputs": [],
      "stateMutability": "nonpayable",
      "type": "function"
    },
    {
      "inputs": [],
      "name": "riggedRoll",
      "outputs": [],
      "stateMutability": "nonpayable",
      "type": "function"
    },
    {
      "inputs": [
        {
          "internalType": "address",
          "name": "newOwner",
          "type": "address"
        }
      ],
      "name": "transferOwnership",
      "outputs": [],
      "stateMutability": "nonpayable",
      "type": "function"
    },
    {
      "inputs": [],
      "name": "withdraw",
      "outputs": [],
      "stateMutability": "nonpayable",
      "type": "function"
    },
    {
      "stateMutability": "payable",
      "type": "receive"
    }
  ],
  "transactionHash": "0xddc8d5513b581201f3e71f2c388b2c355c4688e2efd7a186d1633fb78ec6d62b",
  "args": [
    "0xa9Bf293B85E46079665019BE17a67B8D925572f7"
  ],
  "numDeployments": 1,
  "solcInputHash": "6cd79666f8c522c85b5fc3298608be2e",
  "bytecode": "0x608060405234801561001057600080fd5b5060405161072f38038061072f83398101604081905261002f916100ad565b6100383361005d565b600180546001600160a01b0319166001600160a01b03929092169190911790556100dd565b600080546001600160a01b038381166001600160a01b0319831681178455604051919092169283917f8be0079c531659141344cd1fd0a4f28419497f9722a3daafe3b4186f6b6457e09190a35050565b6000602082840312156100bf57600080fd5b81516001600160a01b03811681146100d657600080fd5b9392505050565b610643806100ec6000396000f3fe6080604052600436106100595760003560e01c80633ccfd60b146100655780636b5e97f81461007c578063715018a6146100915780638da5cb5b146100a65780638e288fd1146100dc578063f2fde38b146100fc57600080fd5b3661006057005b600080fd5b34801561007157600080fd5b5061007a61011c565b005b34801561008857600080fd5b5061007a6101ab565b34801561009d57600080fd5b5061007a61031a565b3480156100b257600080fd5b506000546001600160a01b03165b6040516001600160a01b03909116815260200160405180910390f35b3480156100e857600080fd5b506001546100c0906001600160a01b031681565b34801561010857600080fd5b5061007a6101173660046104fe565b61032e565b6101246103a7565b478061016e5760405162461bcd60e51b81526020600482015260146024820152734e6f2066756e647320746f20776974686472617760601b60448201526064015b60405180910390fd5b600080546040516001600160a01b039091169183156108fc02918491818181858888f193505050501580156101a7573d6000803e3d6000fd5b5050565b66071afd498d00004710156102025760405162461bcd60e51b815260206004820152601e60248201527f4e6f7420656e6f7567682045544820696e2074686520636f6e747261637400006044820152606401610165565b600061020f600143610544565b409050600061021f60108361055d565b61022a90600161057f565b90506102606040518060400160405280601281526020017150726564696374656420726f6c6c3a20257360701b81525082610401565b600381116102dc57600160009054906101000a90046001600160a01b03166001600160a01b0316637d789dee66071afd498d00006040518263ffffffff1660e01b81526004016000604051808303818588803b1580156102bf57600080fd5b505af11580156102d3573d6000803e3d6000fd5b50505050505050565b6101a76040518060400160405280601f81526020017f4e6f7420612077696e6e696e6720726f6c6c2c20736b697070696e672e2e2e00815250610446565b6103226103a7565b61032c6000610489565b565b6103366103a7565b6001600160a01b03811661039b5760405162461bcd60e51b815260206004820152602660248201527f4f776e61626c653a206e6577206f776e657220697320746865207a65726f206160448201526564647265737360d01b6064820152608401610165565b6103a481610489565b50565b6000546001600160a01b0316331461032c5760405162461bcd60e51b815260206004820181905260248201527f4f776e61626c653a2063616c6c6572206973206e6f7420746865206f776e65726044820152606401610165565b6101a782826040516024016104179291906105d8565b60408051601f198184030181529190526020810180516001600160e01b0316632d839cb360e21b1790526104d9565b6103a48160405160240161045a91906105fa565b60408051601f198184030181529190526020810180516001600160e01b031663104c13eb60e21b1790526104d9565b600080546001600160a01b038381166001600160a01b0319831681178455604051919092169283917f8be0079c531659141344cd1fd0a4f28419497f9722a3daafe3b4186f6b6457e09190a35050565b6103a48160006a636f6e736f6c652e6c6f679050600080835160208501845afa505050565b60006020828403121561051057600080fd5b81356001600160a01b038116811461052757600080fd5b9392505050565b634e487b7160e01b600052601160045260246000fd5b818103818111156105575761055761052e565b92915050565b60008261057a57634e487b7160e01b600052601260045260246000fd5b500690565b808201808211156105575761055761052e565b6000815180845260005b818110156105b85760208185018101518683018201520161059c565b506000602082860101526020601f19601f83011685010191505092915050565b6040815260006105eb6040830185610592565b90508260208301529392505050565b602081526000610527602083018461059256fea2646970667358221220abd26f69157d7361f261718f424d227d91454adb6525c00d983e991e33f81b9964736f6c63430008110033",
  "devdoc": {
    "kind": "dev",
    "methods": {
      "owner()": {
        "details": "Returns the address of the current owner."
      },
      "renounceOwnership()": {
        "details": "Leaves the contract without owner. It will not be possible to call `onlyOwner` functions anymore. Can only be called by the current owner. NOTE: Renouncing ownership will leave the contract without an owner, thereby removing any functionality that is only available to the owner."
      },
      "transferOwnership(address)": {
        "details": "Transfers ownership of the contract to a new account (`newOwner`). Can only be called by the current owner."
      }
    },
    "version": 1
  },
  "userdoc": {
    "kind": "user",
    "methods": {},
    "version": 1
  },
  "storageLayout": {
    "storage": [
      {
        "astId": 7,
        "contract": "contracts/RiggedRoll.sol:RiggedRoll",
        "label": "_owner",
        "offset": 0,
        "slot": "0",
        "type": "t_address"
      },
      {
        "astId": 308,
        "contract": "contracts/RiggedRoll.sol:RiggedRoll",
        "label": "diceGame",
        "offset": 0,
        "slot": "1",
        "type": "t_contract(DiceGame)298"
      }
    ],
    "types": {
      "t_address": {
        "encoding": "inplace",
        "label": "address",
        "numberOfBytes": "20"
      },
      "t_contract(DiceGame)298": {
        "encoding": "inplace",
        "label": "contract DiceGame",
        "numberOfBytes": "20"
      }
    }
  }
}