{
  "address": "0xa711098909503e0A6087c43150BE944c61016924",
  "abi": [
    {
      "inputs": [
        {
          "internalType": "address",
          "name": "_diceGameAddress",
          "type": "address"
        }
      ],
      "stateMutability": "nonpayable",
      "type": "constructor"
    },
    {
      "anonymous": false,
      "inputs": [
        {
          "indexed": true,
          "internalType": "address",
          "name": "previousOwner",
          "type": "address"
        },
        {
          "indexed": true,
          "internalType": "address",
          "name": "newOwner",
          "type": "address"
        }
      ],
      "name": "OwnershipTransferred",
      "type": "event"
    },
    {
      "inputs": [],
      "name": "diceGame",
      "outputs": [
        {
          "internalType": "contract DiceGame",
          "name": "",
          "type": "address"
        }
      ],
      "stateMutability": "view",
      "type": "function"
    },
    {
      "inputs": [],
      "name": "owner",
      "outputs": [
        {
          "internalType": "address",
          "name": "",
          "type": "address"
        }
      ],
      "stateMutability": "view",
      "type": "function"
    },
    {
      "inputs": [],
      "name": "renounceOwnership",
      "outputs": [],
      "stateMutability": "nonpayable",
      "type": "function"
    },
    {
      "inputs": [],
      "name": "riggedRoll",
      "outputs": [],
      "stateMutability": "payable",
      "type": "function"
    },
    {
      "inputs": [
        {
          "internalType": "address",
          "name": "newOwner",
          "type": "address"
        }
      ],
      "name": "transferOwnership",
      "outputs": [],
      "stateMutability": "nonpayable",
      "type": "function"
    },
    {
      "inputs": [
        {
          "internalType": "address",
          "name": "_addr",
          "type": "address"
        },
        {
          "internalType": "uint256",
          "name": "_amount",
          "type": "uint256"
        }
      ],
      "name": "withdraw",
      "outputs": [],
      "stateMutability": "nonpayable",
      "type": "function"
    },
    {
      "stateMutability": "payable",
      "type": "receive"
    }
  ],
  "transactionHash": "0x91ff7fdfa25c172e3e9f9c2fe3712ba28ac368e7adb19dbb56f8ee5687913069",
  "args": [
    "0x70D41F87741932a25049Bf18035A2bff3511e6bE"
  ],
  "numDeployments": 3,
  "solcInputHash": "274800672da4ac45b2cd0b15ff902a20",
  "bytecode": "0x608060405234801561001057600080fd5b506040516106db3803806106db83398101604081905261002f916100ad565b6100383361005d565b600180546001600160a01b0319166001600160a01b03929092169190911790556100dd565b600080546001600160a01b038381166001600160a01b0319831681178455604051919092169283917f8be0079c531659141344cd1fd0a4f28419497f9722a3daafe3b4186f6b6457e09190a35050565b6000602082840312156100bf57600080fd5b81516001600160a01b03811681146100d657600080fd5b9392505050565b6105ef806100ec6000396000f3fe6080604052600436106100595760003560e01c80636b5e97f814610065578063715018a61461006f5780638da5cb5b146100845780638e288fd1146100ba578063f2fde38b146100da578063f3fef3a3146100fa57600080fd5b3661006057005b600080fd5b61006d61011a565b005b34801561007b57600080fd5b5061006d61024f565b34801561009057600080fd5b506000546001600160a01b03165b6040516001600160a01b03909116815260200160405180910390f35b3480156100c657600080fd5b5060015461009e906001600160a01b031681565b3480156100e657600080fd5b5061006d6100f536600461050b565b610263565b34801561010657600080fd5b5061006d61011536600461052d565b6102d9565b66071afd498d000047101561016e5760405162461bcd60e51b815260206004820152601560248201527424b739bab33334b1b4b2b73a103130b630b731b29760591b60448201526064015b60405180910390fd5b6000610178610362565b905060058110156101f657600160009054906101000a90046001600160a01b03166001600160a01b0316637d789dee66071afd498d00006040518263ffffffff1660e01b81526004016000604051808303818588803b1580156101da57600080fd5b505af11580156101ee573d6000803e3d6000fd5b505050505050565b60405162461bcd60e51b815260206004820152602560248201527f50726564696374656420726f6c6c206973206e6f7420612077696e6e696e67206044820152643937b6361760d91b6064820152608401610165565b50565b610257610445565b610261600061049f565b565b61026b610445565b6001600160a01b0381166102d05760405162461bcd60e51b815260206004820152602660248201527f4f776e61626c653a206e6577206f776e657220697320746865207a65726f206160448201526564647265737360d01b6064820152608401610165565b61024c8161049f565b6102e1610445565b804710156103275760405162461bcd60e51b815260206004820152601360248201527224b739bab33334b1b4b2b73a10333ab732399760691b6044820152606401610165565b6040516001600160a01b0383169082156108fc029083906000818181858888f1935050505015801561035d573d6000803e3d6000fd5b505050565b600080600160009054906101000a90046001600160a01b03166001600160a01b031663affed0e06040518163ffffffff1660e01b8152600401602060405180830381865afa1580156103b8573d6000803e3d6000fd5b505050506040513d601f19601f820116820180604052508101906103dc9190610557565b905060106103eb600143610570565b600154604080519240602084015260609190911b6bffffffffffffffffffffffff191690820152605481018390526074016040516020818303038152906040528051906020012060001c61043f9190610597565b91505090565b6000546001600160a01b031633146102615760405162461bcd60e51b815260206004820181905260248201527f4f776e61626c653a2063616c6c6572206973206e6f7420746865206f776e65726044820152606401610165565b600080546001600160a01b038381166001600160a01b0319831681178455604051919092169283917f8be0079c531659141344cd1fd0a4f28419497f9722a3daafe3b4186f6b6457e09190a35050565b80356001600160a01b038116811461050657600080fd5b919050565b60006020828403121561051d57600080fd5b610526826104ef565b9392505050565b6000806040838503121561054057600080fd5b610549836104ef565b946020939093013593505050565b60006020828403121561056957600080fd5b5051919050565b8181038181111561059157634e487b7160e01b600052601160045260246000fd5b92915050565b6000826105b457634e487b7160e01b600052601260045260246000fd5b50069056fea26469706673582212201c163c50c078d490ba9610a24cc7437910aad9bf5183d7dd7f0f42e1f8032d7f64736f6c63430008110033",
  "devdoc": {
    "kind": "dev",
    "methods": {
      "owner()": {
        "details": "Returns the address of the current owner."
      },
      "renounceOwnership()": {
        "details": "Leaves the contract without owner. It will not be possible to call `onlyOwner` functions anymore. Can only be called by the current owner. NOTE: Renouncing ownership will leave the contract without an owner, thereby removing any functionality that is only available to the owner."
      },
      "transferOwnership(address)": {
        "details": "Transfers ownership of the contract to a new account (`newOwner`). Can only be called by the current owner."
      }
    },
    "version": 1
  },
  "userdoc": {
    "kind": "user",
    "methods": {},
    "version": 1
  },
  "storageLayout": {
    "storage": [
      {
        "astId": 7,
        "contract": "contracts/RiggedRoll.sol:RiggedRoll",
        "label": "_owner",
        "offset": 0,
        "slot": "0",
        "type": "t_address"
      },
      {
        "astId": 303,
        "contract": "contracts/RiggedRoll.sol:RiggedRoll",
        "label": "diceGame",
        "offset": 0,
        "slot": "1",
        "type": "t_contract(DiceGame)294"
      }
    ],
    "types": {
      "t_address": {
        "encoding": "inplace",
        "label": "address",
        "numberOfBytes": "20"
      },
      "t_contract(DiceGame)294": {
        "encoding": "inplace",
        "label": "contract DiceGame",
        "numberOfBytes": "20"
      }
    }
  }
}