{
  "address": "0x8eD85ab44b29286D878492da06c862770A078176",
  "abi": [
    {
      "inputs": [
        {
          "internalType": "address",
          "name": "exampleExternalContractAddress",
          "type": "address"
        }
      ],
      "stateMutability": "nonpayable",
      "type": "constructor"
    },
    {
      "anonymous": false,
      "inputs": [
        {
          "indexed": false,
          "internalType": "uint256",
          "name": "totalAmount",
          "type": "uint256"
        }
      ],
      "name": "Executed",
      "type": "event"
    },
    {
      "anonymous": false,
      "inputs": [
        {
          "indexed": true,
          "internalType": "address",
          "name": "staker",
          "type": "address"
        },
        {
          "indexed": false,
          "internalType": "uint256",
          "name": "amount",
          "type": "uint256"
        }
      ],
      "name": "Stake",
      "type": "event"
    },
    {
      "anonymous": false,
      "inputs": [
        {
          "indexed": true,
          "internalType": "address",
          "name": "withdrawer",
          "type": "address"
        },
        {
          "indexed": false,
          "internalType": "uint256",
          "name": "amount",
          "type": "uint256"
        }
      ],
      "name": "Withdraw",
      "type": "event"
    },
    {
      "inputs": [
        {
          "internalType": "address",
          "name": "",
          "type": "address"
        }
      ],
      "name": "balances",
      "outputs": [
        {
          "internalType": "uint256",
          "name": "",
          "type": "uint256"
        }
      ],
      "stateMutability": "view",
      "type": "function"
    },
    {
      "inputs": [],
      "name": "deadline",
      "outputs": [
        {
          "internalType": "uint256",
          "name": "",
          "type": "uint256"
        }
      ],
      "stateMutability": "view",
      "type": "function"
    },
    {
      "inputs": [],
      "name": "exampleExternalContract",
      "outputs": [
        {
          "internalType": "contract ExampleExternalContract",
          "name": "",
          "type": "address"
        }
      ],
      "stateMutability": "view",
      "type": "function"
    },
    {
      "inputs": [],
      "name": "execute",
      "outputs": [],
      "stateMutability": "nonpayable",
      "type": "function"
    },
    {
      "inputs": [],
      "name": "executed",
      "outputs": [
        {
          "internalType": "bool",
          "name": "",
          "type": "bool"
        }
      ],
      "stateMutability": "view",
      "type": "function"
    },
    {
      "inputs": [],
      "name": "stake",
      "outputs": [],
      "stateMutability": "payable",
      "type": "function"
    },
    {
      "inputs": [],
      "name": "threshold",
      "outputs": [
        {
          "internalType": "uint256",
          "name": "",
          "type": "uint256"
        }
      ],
      "stateMutability": "view",
      "type": "function"
    },
    {
      "inputs": [],
      "name": "timeLeft",
      "outputs": [
        {
          "internalType": "uint256",
          "name": "",
          "type": "uint256"
        }
      ],
      "stateMutability": "view",
      "type": "function"
    },
    {
      "inputs": [],
      "name": "withdraw",
      "outputs": [],
      "stateMutability": "nonpayable",
      "type": "function"
    },
    {
      "stateMutability": "payable",
      "type": "receive"
    }
  ],
  "transactionHash": "0x18f01a5b5c3d1faa0d78ce918f9d340383386b8c9b879582e8cbc79ce5642d0f",
  "args": [
    "0xFF6E94b43b6c52f64eDb32926ad64a59039e8353"
  ],
  "numDeployments": 1,
  "solcInputHash": "09013079d22471cd58ba45308b70294e",
  "bytecode": "0x608060405261000f42603c61009a565b60025534801561001e57600080fd5b5060405161074d38038061074d83398101604081905261003d9161006c565b600080546001600160a01b0319166001600160a01b03929092169190911790556003805460ff191690556100be565b60006020828403121561007d578081fd5b81516001600160a01b0381168114610093578182fd5b9392505050565b600082198211156100b957634e487b7160e01b81526011600452602481fd5b500190565b610680806100cd6000396000f3fe60806040526004361061008a5760003560e01c80633a4b66f1116100595780633a4b66f1146101335780633ccfd60b1461013b57806342cde4e814610150578063614619541461016c5780639f75f2271461018157600080fd5b80631300a6d11461009e57806327e235e3146100c657806329dcb0cf146100f357806331a38c891461010957600080fd5b36610099576100976101b9565b005b600080fd5b3480156100aa57600080fd5b506100b36102ae565b6040519081526020015b60405180910390f35b3480156100d257600080fd5b506100b36100e13660046105d7565b60016020526000908152604090205481565b3480156100ff57600080fd5b506100b360025481565b34801561011557600080fd5b506003546101239060ff1681565b60405190151581526020016100bd565b6100976101b9565b34801561014757600080fd5b506100976102d2565b34801561015c57600080fd5b506100b3670de0b6b3a764000081565b34801561017857600080fd5b50610097610448565b34801561018d57600080fd5b506000546101a1906001600160a01b031681565b6040516001600160a01b0390911681526020016100bd565b60006101c36102ae565b1161020b5760405162461bcd60e51b8152602060048201526013602482015272111958591b1a5b99481a185cc81c185cdcd959606a1b60448201526064015b60405180910390fd5b600034116102535760405162461bcd60e51b815260206004820152601560248201527426bab9ba1039ba30b5b29039b7b6b29032ba3432b960591b6044820152606401610202565b3360009081526001602052604081208054349290610272908490610605565b909155505060405134815233907febedb8b3c678666e7f36970bc8f57abf6d8fa2e828c0da91ea5b75bf68ed101a9060200160405180910390a2565b600060025442106102bf5750600090565b426002546102cd919061061d565b905090565b6102da6102ae565b156103275760405162461bcd60e51b815260206004820152601b60248201527f446561646c696e6520686173206e6f74207061737365642079657400000000006044820152606401610202565b670de0b6b3a7640000471061037e5760405162461bcd60e51b815260206004820152601e60248201527f5468726573686f6c64206d65742c2063616e6e6f7420776974686472617700006044820152606401610202565b33600090815260016020526040902054806103d45760405162461bcd60e51b81526020600482015260166024820152754e6f2062616c616e636520746f20776974686472617760501b6044820152606401610202565b336000818152600160205260408082208290555183156108fc0291849190818181858888f1935050505015801561040f573d6000803e3d6000fd5b5060405181815233907f884edad9ce6fa2440d8a54cc123490eb96d2768479d49ff9c7366125a94243649060200160405180910390a250565b6104506102ae565b1561049d5760405162461bcd60e51b815260206004820152601b60248201527f446561646c696e6520686173206e6f74207061737365642079657400000000006044820152606401610202565b670de0b6b3a76400004710156104e95760405162461bcd60e51b8152602060048201526011602482015270151a1c995cda1bdb19081b9bdd081b595d607a1b6044820152606401610202565b60035460ff161561052f5760405162461bcd60e51b815260206004820152601060248201526f105b1c9958591e48195e1958dd5d195960821b6044820152606401610202565b6003805460ff19166001179055600080546040805163522e117760e01b8152905147936001600160a01b039093169263522e11779285926004808301939282900301818588803b15801561058257600080fd5b505af1158015610596573d6000803e3d6000fd5b50505050507fbcf6a68a2f901be4a23a41b53acd7697893a7e34def4e28acba584da75283b67816040516105cc91815260200190565b60405180910390a150565b6000602082840312156105e8578081fd5b81356001600160a01b03811681146105fe578182fd5b9392505050565b6000821982111561061857610618610634565b500190565b60008282101561062f5761062f610634565b500390565b634e487b7160e01b600052601160045260246000fdfea264697066735822122051f220829ba28976e72e359909f2bc713ed7cf5d8ab76cf1b0cde33e56df285f64736f6c63430008040033",
  "devdoc": {
    "kind": "dev",
    "methods": {},
    "version": 1
  },
  "userdoc": {
    "kind": "user",
    "methods": {},
    "version": 1
  },
  "storageLayout": {
    "storage": [
      {
        "astId": 19,
        "contract": "contracts/Staker.sol:Staker",
        "label": "exampleExternalContract",
        "offset": 0,
        "slot": "0",
        "type": "t_contract(ExampleExternalContract)12"
      },
      {
        "astId": 23,
        "contract": "contracts/Staker.sol:Staker",
        "label": "balances",
        "offset": 0,
        "slot": "1",
        "type": "t_mapping(t_address,t_uint256)"
      },
      {
        "astId": 32,
        "contract": "contracts/Staker.sol:Staker",
        "label": "deadline",
        "offset": 0,
        "slot": "2",
        "type": "t_uint256"
      },
      {
        "astId": 34,
        "contract": "contracts/Staker.sol:Staker",
        "label": "executed",
        "offset": 0,
        "slot": "3",
        "type": "t_bool"
      }
    ],
    "types": {
      "t_address": {
        "encoding": "inplace",
        "label": "address",
        "numberOfBytes": "20"
      },
      "t_bool": {
        "encoding": "inplace",
        "label": "bool",
        "numberOfBytes": "1"
      },
      "t_contract(ExampleExternalContract)12": {
        "encoding": "inplace",
        "label": "contract ExampleExternalContract",
        "numberOfBytes": "20"
      },
      "t_mapping(t_address,t_uint256)": {
        "encoding": "mapping",
        "key": "t_address",
        "label": "mapping(address => uint256)",
        "numberOfBytes": "32",
        "value": "t_uint256"
      },
      "t_uint256": {
        "encoding": "inplace",
        "label": "uint256",
        "numberOfBytes": "32"
      }
    }
  }
}